:1003DB0011223344550000000000313200000000B0
:0E03EB00000000000000000000000000000004
:0E043300050D10101010100508010101010147
:1003B800E4FDFCC3ED9FEC9E50070DBD00010C80D1
:1003C800F2E4FCFDC3ED9FEC9E50070DBD00010C4F
:0203D80080F2B1
:0103DA002200
:0B045B00EFD394004004001F80F62245
:10028E007F6412045BC2B6D2B7C2B4D2B37A00791D
:10029E000D1202E87B007A0079087546057F2A1256
:1002AE0002EF7D017F211204127D017F22120412C2
:1002BE007D1A7F241204127D027F23120412E4FDA4
:1002CE007F251204127D207F311204127D077F26B6
:0A02DE001204127D0E7F20020412AC
:1003F900E4FEEF3392B5EF25E0FFD2B4A2B2E433C5
:080409004207C2B40EBE08EA6E
:0104110022C8
:0C044200C2B71203F9E4FF1203F9D2B7AD
:01044E00228B
:10041200C2B71203F9AC07AF051203F9D2B7AF04A2
:0104220022B7
:060359008B438A44894534
:10035F00C2B71203F9AD07E4FCECC395465017E49E
:10036F00FF1203F9AB43AA44A9458C82758300EFB2
:0A037F001201120C80E3D2B7AF05A3
:010389002251
:0702E8007B007546057F3025
:0602EF008B438A4489459F
:1002F500C2B71203F9AD07E4FCECC395465018AB41
:10030500430545E545AA447002054414F91200F970
:0B031500FF1203F90C80E2D2B7AF0525
:0103200022BA
:09046600C2B6D2B67F8202045B2B
:06038A008B128A13891496
:10039000E4FB7F071204428F20300612C2B6AB1274
:1003A000AA13A9147546207F611203597B01AD2061
:0703B0007F27120412AF03C6
:0103B7002223
:060321007B007A00792246
:100327008B368A378938C2B67B007A00790D7546D5
:10033700057F2A1202EFAB36AA37A9387546207F08
:10034700A01202EF7D0E7F20120412D2B67F320276
:02035700045B45
:10042300C2B67D0F7F20120412D2B67FC802045BCE
:10023100E4F536F53778387C00FD7BFF7A0379DB0E
:10024100FE7F051200D3783D7C007D007BFF7A03A1
:1002510079E07E007F051200D37A0079381202E836
:100261007B007A00793D7546057F10120359E53D03
:10027100B41117E53EB42212E53FB4330DE540B4A5
:0C0281004408E541B455037F01227F02D0
:01028D00224E
:0C044F00C2C27F347E081203B8D2C22261
:1001C00078227C007D007BFF7A0379E57E007F1436
:1001D0001200D3E4F593F594F591F592F595F59623
:1001E000F5B1F5B2F5B3F5B4F5C9F5CA12028E1240
:1001F00002318F21120321E521B40106C2C3C2C01E
:100200008013E521B40206C2C2C2C18008C2C3C2C3
:10021000C2C2C1C2C012028E1204231203217F0780
:100220001204428F807DFF7F2712041212044F8038
:01023000C607
:03000000020134C6
:0C013400787FE4F6D8FD75814602017B5F
:10000300E709F608DFFA8046E709F208DFFA803EDF
:1000130088828C83E709F0A3DFFA8032E309F608CC
:10002300DFFA8078E309F208DFFA807088828C8334
:10003300E309F0A3DFFA806489828A83E0A3F608E8
:10004300DFFA805889828A83E0A3F208DFFA804CC2
:1000530080D280FA80C680D4806980F28033801099
:1000630080A680EA809A80A880DA80E280CA803302
:1000730089828A83ECFAE493A3C8C582C8CCC5837A
:10008300CCF0A3C8C582C8CCC583CCDFE9DEE7804A
:100093000D89828A83E493A3F608DFF9ECFAA9F0C9
:1000A300EDFB2289828A83ECFAE0A3C8C582C8CC1F
:1000B300C583CCF0A3C8C582C8CCC583CCDFEADE38
:1000C300E880DB89828A83E493A3F208DFF980CC9A
:1000D30088F0EF60010E4E60C388F0ED2402B40493
:1000E3000050B9F582EB2402B4040050AF2323453A
:0600F3008223900053730C
:1000F900BB010689828A83E0225002E722BBFE0205
:09010900E32289828A83E4932237
:10011200F8BB010DE58229F582E5833AF583E8F023
:10012200225006E92582C8F622BBFE05E92582C8CF
:02013200F222B7
:100140000201C0E493A3F8E493A34003F68001F214
:1001500008DFF48029E493A3F85407240CC8C333C0
:10016000C4540F4420C8834004F456800146F6DF8F
:10017000E4800B0102040810204080900433E47EE8
:10018000019360BCA3FF543F30E509541FFEE49384
:10019000A360010ECF54C025E060A840B8E493A34B
:1001A000FAE493A3F8E493A3C8C582C8CAC583CA76
:1001B000F0A3C8C582C8CAC583CADFE9DEE780BE2E
:0104410000BA
:00000001FF
