:0A16BF001122334455000000000022
:0E16050005270101010101052210101010102F
:10159700E4FDFCC3ED9FEC9E50070DBD00010C80E0
:1015A700F2E4FCFDC3ED9FEC9E50070DBD00010C5E
:0215B70080F2C0
:0115B900220F
:0B16A000EFD394004004001F80F622EE
:10130B007F641216A0C2B6D2B7C2B47A0079271284
:10131B0014197B007A007922751C057F2A12142080
:10132B007D017F2112163B7D017F2212163B7D0230
:10133B007F2312163BE4FD7F2512163B7D207F3168
:10134B0012163B7D077F2612163B7D0F7F20021660
:01135B003B56
:1015D400E4FEEF3392B5EF25E0FFD2B4A2B2E433D8
:0815E4004207C2B40EBE08EA82
:0115EC0022DC
:0C169300C2B71215D4E4FF1215D4D2B770
:01169F002228
:06163500C2B67D0F7F200C
:10163B00C2B71215D4AC07AF051215D4D2B7AF048D
:01164B00227C
:0614F1008B198A1A891B09
:1014F700C2B71215D4AD07E4FCECC3951C5017E432
:10150700FF1215D4AB19AA1AA91B8C82758300EF99
:0A151700120F5A0C80E3D2B7AF05A3
:0115210022A7
:071419007B00751C057F300C
:061420008B198A1A891BDA
:10142600C2B71215D4AD07E4FCECC3951C5018AB3B
:1014360019051BE51BAA1A7002051A14F9120F14D6
:0B144600FF1215D40C80E2D2B7AF05F6
:011451002278
:0A16AB00121635D2B67F820216A097
:0A16B500121635D2B67FC80216A047
:06148B007B007A00790AE3
:061491008B0C8A0D890E90
:10149700E4FB7F071216938F20300612C2B6AB0CFF
:1014A700AA0DA90E751C207F611214F17B01AD20D6
:0714B7007F2712163BAF0373
:0114BE00220B
:1014BF008B1D8A1E891FC2B67B007A007927751C87
:1014CF00057F2A121420AB1DAA1EA91F751C207F91
:1014DF00A01214207D0E7F2012163BD2B67F0A0277
:0214EF0016A045
:10139F00E4F594F593F592F591F596F595F5B2F58B
:1013AF00B1F5B4F5B3F5CAF5C9F5CCF5CBF5E2F562
:1013BF00E1E5A2543FF5A27598DA758E40E4F58900
:0D13CF00758BE0758DFED28ED2ACD2AF22B0
:1012AE00E4F50CF50D780E7C00FD7BFF7A1679BF08
:1012BE00FE7F05120EEE78137C007D007BFF7A1602
:1012CE0079C47E007F05120EEE7A00790E12141983
:1012DE007B007A007913751C057F101214F1E5134B
:1012EE00B41117E514B42212E515B4330DE516B496
:0C12FE004408E517B455037F01227F026D
:01130A0022C0
:100FE30012130B12139F12164CD2AF1210AA121522
:100FF3004B1212AEBF0107C2C3C2C0021096BF029A
:1010030007C2C2C2C2021096C2C3C2C2C2C2C2C017
:1010130002109612130B1216AB12148BE4FBFDFF96
:1010230012135C7B01E4FD7F1212135C7B02E4FD6F
:101033007F2412135C7B03E4FD7F3612135C7B0475
:10104300E4FD7F4812135C7B05E4FD7F5A12135CB9
:101053007B06E4FD7F6C12135CE545B40105E4F502
:1010630045B2CD20B3377B007A00790A7D067F1421
:101073001213DC12148B7F587E02121597E4F508C5
:10108300740A2508F8E6FF12165F0508E508C394FD
:101093000240ED7F707E171215970210167F3C7E7B
:0710A3000012159702101660
:030023000215EDD6
:1015ED00C0D0309809C298859980A29A92A230995C
:0815FD0004C299C208D0D032EB
:10165F002008FDEF30D004D29B8002C29BD208F548
:02166F009922BE
:101572008B418A428943AB41AA42A943120F1460AC
:10158200130543E5437002054214F9120F14FF12CA
:05159200165F80E2225B
:1000A6000000000000000000002F00000000070014
:1000B600070000147F147F1400242A7F2A1200628E
:1000C600640813230036495522500000050300003A
:1000D60000001C224100000041221C000014083EC2
:1000E60008140008083E0808000000A06000000888
:1000F60008080808000060600000002010080402DC
:10010600003E5149453E0000427F40000042615199
:100116004946002141454B31001814127F10002733
:1001260045454539003C4A494930000171090503F6
:1001360000364949493600064949291E0000363627
:10014600000000005636000000081422410000148A
:100156001414141400004122140800020151090667
:1001660000324959513E007C1211127C007F4949E8
:100176004936003E41414122007F4141221C007F19
:1001860049494941007F09090901003E4149497A27
:10019600007F0808087F0000417F410000204041A1
:1001A6003F01007F08142241007F40404040007F0D
:1001B600020C027F007F0408107F003E4141413E51
:1001C600007F09090906003E4151215E007F091999
:1001D60029460046494949310001017F0101003F96
:1001E6004040403F001F2040201F003F4038403F16
:1001F600006314081463000708700807006151497A
:10020600454300007F41410000552A552A5500000C
:1002160041417F000004020102040040404040408A
:10022600000001020400002054545478007F484422
:10023600443800384444442000384444487F003859
:100246005454541800087E0901020018A4A4A47C82
:10025600007F080404780000447D4000004080844C
:100266007D00007F102844000000417F4000007C94
:1002760004180478007C08040478003844444438A0
:1002860000FC242424180018242418FC007C0804EC
:10029600040800485454542000043F444020003CC5
:1002A6004040207C001C2040201C003C4030403C4C
:1002B600004428102844001CA0A0A07C00446454DC
:1002C6004C44141414141414000000000000000020
:1002D6000000000000000000000000F80000000020
:1002E600000000333000000000100C06100C060061
:1002F600000000000000000040C07840C0784000C8
:10030600043F04043F040400007088FC0830000029
:10031600001820FF211E0000F008F000E018000081
:1003260000211C031E211E0000F00888700000003A
:100336001E2123241927211010160E00000000008C
:100346000000000000000000000000E018040200A9
:10035600000000071820400000020418E00000001A
:100366000040201807000000404080F08040400018
:100376000202010F01020200000000F0000000006E
:100386000101011F01010100000000000000000042
:1003960080B07000000000000000000000000000B7
:1003A6000001010101010101000000000000000040
:1003B60000303000000000000000000080601804DB
:1003C600006018060100000000E010080810E000B8
:1003D600000F102020100F00001010F80000000081
:1003E6000020203F202000000070080808887000C8
:1003F6000030282422213000003008888848300048
:100406000018202020110E000000C02010F8000067
:1004160000070424243F240000F808888808080000
:100426000019212020110E0000E010888818000015
:10043600000F112020110E0000380808C8380800E7
:100446000000003F00000000007088080888700067
:10045600001C222121221C0000E010080810E000E8
:100466000000312222110F00000000C0C000000071
:100476000000003030000000000000800000000096
:10048600000080600000000000008040201008008E
:100496000001020408102000404040404040400057
:1004A6000404040404040400000810204080000032
:1004B6000020100804020100007048080808F00037
:1004C6000000003036010000C030C828E810E00007
:1004D6000718272423140B000000C038E000000092
:1004E600203C23020227382008F8888888700000FC
:1004F600203F202020110E00C030080808083800D0
:10050600071820202010080008F808080810E00046
:10051600203F202020100F0008F88888E8081000E7
:10052600203F20202320180008F88888E8081000BB
:10053600203F200003000000C030080808380000F3
:1005460007182020221E020008F808000008F808F4
:10055600203F210101213F20000808F8080800007B
:100566000020203F2020000000000808F8080800AE
:10057600C08080807F00000008F888C02818080026
:10058600203F20012638200008F80800000000005F
:10059600203F20202020300008F8F800F8F8080056
:1005A600203F003F003F200008F830C00008F80850
:1005B600203F200007183F00E01008080810E00060
:1005C6000F10202020100F0008F808080808F00077
:1005D600203F210101010000E01008080810E0009A
:1005E6000F18242438504F0008F88888888870002F
:1005F600203F2000030C30200070880808083800CF
:100606000038202121221C00180808F808081800C4
:100616000000203F2000000008F808000008F80845
:10062600001F202020201F000878880000C83808F6
:10063600000007380E010000F80800F80008F8006E
:10064600033C0700073C0300081868808068180808
:1006560020302C03032C30200838C800C838080086
:100666000000203F2000000010080808C8380800D5
:100676002038262120201800000000FE0202020079
:100686000000007F40404000000C30C00000000029
:10069600000000010638C00000020202FE00000051
:1006A600004040407F0000000000040202020400F7
:1006B6000000000000000000000000000000000034
:1006C600808080808080808000020204000000001C
:1006D6000000000000000000000080808080000014
:1006E6000019242222223F2008F800808000000002
:1006F600003F112020110E000000008080800000C5
:10070600000E112020201100000000808088F800D3
:10071600000E112020103F20000080808080000005
:10072600001F222222221300008080F08888881869
:100736000020203F20200000000080808080800074
:10074600006B94949493600008F800808080000009
:10075600203F210000203F200080989800000000E4
:100766000020203F20200000000000809898000014
:1007760000C08080807F000008F800008080800034
:10078600203F24022D302000000808F80000000059
:100796000020203F20200000808080808080800014
:1007A600203F20003F20003F8080008080800000A6
:1007B600203F210000203F20000080808080000034
:1007C600001F202020201F00808000808000000065
:1007D60080FFA12020110E00000000808080800094
:1007E600000E112020A0FF80808080008080800085
:1007F60020203F21200001000000808080808000B2
:100806000033242424241900008080E08080000026
:100816000000001F20200000808000000080800073
:10082600001F202020103F208080800000808080D4
:1008360000010E3008060100808000800080808064
:100846000F300C030C300F00008080008080800089
:100856000020312E0E3120008080800000808080B4
:1008660080818E7018060100008080808080800064
:100876000021302C2221300000000000807C020282
:1008860000000000003F404000000000FF000000A4
:1008960000000000FF0000000002027C8000000053
:1008A6000040403F0000000000060101020204046F
:1008B600000000000000000000F80000FF402018C3
:1008C6000F18680808080800000000000000000073
:1008D6000000000000000000001F0000FF00007F75
:1008E60021213F21217F00000000000000000000C0
:1008F600000000000000000020202020202020FF13
:100906002020202020202000000000000000000001
:10091600000000000000000080804020100C030052
:10092600030C102040808000000000000000000042
:100936000000000000000000403C10FF10102010D6
:100946008F7808F808F8000000000000000000009A
:100956000000000000000000020602FF0101044240
:1009660021184681403F0000000000000000000002
:10097600000000000000000002FE9292FE0200103D
:100986001116F01413100000000000000000000013
:100996000000000000000000101F0808FF0481414D
:1009A600310D030D31418100000000000000000000
:1009B6000000000000000000100C0484146405060A
:1009C600F404040404140C000000000000000000FD
:1009D6000000000000000000048484444724140C36
:1009E600070C1424448404000000000000000000EA
:1009F600000000000000000002FA8282FE80402013
:100A0600504C434C50204000000000000000000005
:100A1600000000000000000008184884443F4044DD
:100A260058414E605847400000000000000000009A
:100A36000000000000000000100C2424A4642526F9
:100A46002424A42424140C0000000000000000004C
:100A56000000000000000000404048494949497F25
:100A66004949494B48404000000000000000000092
:100A7600000000000000000000FE0222222222A246
:100A8600FA22222202FE0000000000000000000000
:100A9600000000000000000000FF40484442516092
:100AA6005F40404040FF00000000000000000000E2
:100AB60000000000000000002030AC632018084849
:100AC60048487F4848480800000000000000000031
:100AD600000000000000000022672212121200FE31
:100AE6004242424242FE00000000000000000000B8
:100AF60000000000000000008084444424140C0719
:100B06000C1424444484800000000000000000000F
:100B16000000000000000000000000FF4949497F76
:100B2600494949FF000000000000000000000000E5
:100B360000000000000000000000001060020C0031
:100B460000FF0000000000000000000000000000A0
:100B56000000000000000000000202020202020281
:100B660001FF01010101010000000000000000007A
:100B760000000000000000001060028C0000FE92E1
:100B860092929292FE000000000000000000000019
:100B9600000000000000000004047E01407E424286
:100BA6007E427E42427E40000000000000000000BF
:100BB60000000000000000000000FC242424FC25A6
:100BC6002624FC2424240400000000000000000069
:100BD600000000000000000040308F80844C552546
:100BE6002525554C80808000000000000000000094
:100BF600000000000000000000007E0000FF004032
:100C0600300F04146404000000000000000000001F
:100C1600000000000000000040407E42427E42424A
:100C2600427E42427E40400000000000000000007C
:100C360000000000000000001060028C00FE02F2BE
:100C460002FE00F800FF00000000000000000000A7
:100C5600000000000000000004047E018047300F01
:100C660010270047807F0000000000000000000001
:100C76000000000000000000044444445F44C444F3
:100C860044445F44C4040400000000000000000067
:100C96000000000000000000000000000000FF004F
:100CA6000008100807000000000000000000000017
:100CB60000000000000000000000C04040407F48E7
:100CC600484848C80808000000000000000000006E
:100CD6000000000000000000804037040414640493
:100CE6001464040710E0000000000000000000008B
:100CF60000000000000000001060028C00FE9292CE
:100D060092929292FE000000000000000000000097
:100D1600000000000000000004047E014448507FEB
:100D260040407F50484440000000000000000000A2
:100D360000000000000000000000000000000000AD
:100D4600000000000000000000000000000000009D
:100D56000000000000000000000036360000000021
:100D6600000000000000000000000000000000007D
:100D76000000000000000000060909E6F80C040265
:100D860002020202041E0000000000000000000033
:100D96000000000000000000000000071F30204097
:100DA600404040402010000000000000000000000D
:100DB6000000000000000000F008F080601800004D
:100DC60000310C031E211E00000000000000000080
:100DD600000000000000000008F88888888870007D
:100DE600203F2000030C302000000000000000001F
:100DF600000000000000000008F808000008F808DD
:100E0600203F210101213F200000000000000000DA
:080E16000000000000000000D4
:1015BA00EF4E60157D087C07ED1DAA0470011C4AD8
:0915CA0070F6EF1F70EA1E80E7C5
:0115D30022F5
:10145200F583E5822CF582E43583F583E493FF7D01
:011462000188
:10146300ED6004D2938002C293C292E4FEC296EF6F
:1014730030E704D2958002C295D296EF25E0FF0EA5
:07148300BE08EAD292D293E9
:01148A00223F
:10000300AC07ED24B0FFE4FD121463EC54F0C454C8
:100013000F4410FF121463EC540F4401FF021463E6
:10167100E4FD7F8D1214637F141214637FAF021493
:011681006305
:10168200E4FD7F8D1214637F101214637FAE021487
:0116920063F4
:10154B00E4FCEC24B0FFE4FD121463E4FF1214631B
:10155B007F10121463E4FB7D01E4FF1214630BBBD9
:06156B0080F50CBC08DC59
:011571002257
:0611E600AA07A905AF03F2
:1011EC00E4FCEF24E0FBEAD3947F4004E4FA090921
:1011FC00AF02AD01120003E4FC75F010EBA42CF56A
:10120C0082E435F0F583E58224CEF582E583340261
:10121C0012145C0CBC08E2AF02E904FD120003E4FA
:10122C00FC75F010EBA42CF582E435F0F583E58227
:10123C0024D6F582E583340212145C0CBC08E2223D
:04161D008F47A90545
:101621007F017E00AD0119ED6009AD477C00120F0D
:031631007C80F1C9
:011634002293
:080026008F388D398A3A8B3BBB
:10002E00E4F540F53EE53EC3953C505FC3E53C9597
:10003E003E14FD7F0A12161DAC3AAD3BCFCDCFCE8E
:10004E00CCCE120F8E7C007D0A120F8E8D3FE540B6
:10005E007020E53C14FFE53EC39F5016E53F700F40
:10006E00E53DC313853EF0A42538FF7B2080137534
:10007E004001E53DC313853EF0A42538FFE53F243E
:0B008E0030FBAD391211E6053E809AF0
:010099002244
:0A13DC008F0C8D0D8B0E8A0F891007
:1013E600E4F511AB0EAA0FA91085118275830012C0
:1013F6000F2DFB601DAD0DAF0C1211E67408250C08
:10140600F50CD394784007E4F50C050D050D051190
:0214160080D183
:0114180022B1
:04135C00AA07A9052E
:10136000E4F50C120003E4FC75F040EBA424BEF598
:1013700082E5F03408121452050C0CBC10EAAF02DE
:10138000E904FD120003E4FC75F040EBA424DEF553
:0E13900082E5F03408121452050C0CBC10EA71
:01139E00222C
:04124C008F2E8B3026
:10125000E4F535F536E5315407700BE5311313131A
:10126000541FF537800AE531131313541F04F53763
:101270008D37E537C395315034AD37AF2E120003AB
:10128000AC2EECC395305021AB32AA33A9340536CD
:10129000E536AE357002053514F5828E83120F2DBA
:0D12A000FF7D011214630C80D9053780C555
:0112AD00221E
:1010AA00D2947F647E001215BAC2947F647E0012C5
:1010BA0015BAD294E4FD7FAE121463E4FF121463EE
:1010CA007F101214637F401214637F811214637FAE
:1010DA00CF1214637FA11214637FC81214637FA610
:1010EA001214637FA81214637F3F1214637FD31212
:1010FA001463E4FF1214637FD51214637F80121401
:10110A00637FD91214637FF11214637FDA121463B6
:10111A007F121214637FDB1214637F401214637F01
:10112A00201214637F021214637F8D1214637F14DA
:10113A001214637FA41214637FA61214637FAF1282
:10114A0014637FAF12146312154BE4FDFF02000310
:09161300014600014400014500FC
:10164C0053D1DFE4F5D375D2A643D18043AF4043E9
:03165C00D1802218
:0300A30002152221
:10152200C0E0C0D005460544E546D3941440057595
:101532004600B2C2E544D39401400975440020C478
:0915420003754501D0D0D0E03260
:0300000002115A90
:0C115A00787FE4F6D8FD7581470211A1F2
:100E1E00E709F608DFFA8046E709F208DFFA803EB6
:100E2E0088828C83E709F0A3DFFA8032E309F608A3
:100E3E00DFFA8078E309F208DFFA807088828C830B
:100E4E00E309F0A3DFFA806489828A83E0A3F608BF
:100E5E00DFFA805889828A83E0A3F208DFFA804C99
:100E6E0080D280FA80C680D4806980F28033801070
:100E7E0080A680EA809A80A880DA80E280CA8033D9
:100E8E0089828A83ECFAE493A3C8C582C8CCC58351
:100E9E00CCF0A3C8C582C8CCC583CCDFE9DEE78021
:100EAE000D89828A83E493A3F608DFF9ECFAA9F0A0
:100EBE00EDFB2289828A83ECFAE0A3C8C582C8CCF6
:100ECE00C583CCF0A3C8C582C8CCC583CCDFEADE0F
:100EDE00E880DB89828A83E493A3F208DFF980CC71
:100EEE0088F0EF60010E4E60C388F0ED2402B4046A
:100EFE000050B9F582EB2402B4040050AF23234511
:060F0E008223900E6E73B9
:100F1400BB010689828A83E0225002E722BBFE02DB
:090F2400E32289828A83E493220E
:100F2D00BB010CE58229F582E5833AF583E0225079
:100F3D0006E92582F8E622BBFE06E92582F8E222C3
:0D0F4D00E58229F582E5833AF583E49322DD
:100F5A00F8BB010DE58229F582E5833AF583E8F0CD
:100F6A00225006E92582C8F622BBFE05E92582C879
:020F7A00F22261
:100F7C00EF8DF0A4A8F0CF8CF0A428CE8DF0A42E89
:020F8C00FE2243
:100F8E00BC000BBE0029EF8DF084FFADF022E4CC47
:100F9E00F875F008EF2FFFEE33FEEC33FCEE9DEC10
:100FAE00984005FCEE9DFE0FD5F0E9E4CEFD22ED56
:100FBE00F8F5F0EE8420D21CFEADF075F008EF2FA0
:100FCE00FFED33FD4007985006D5F0F222C398FD91
:050FDE000FD5F0EA222E
:10116600020FE3E493A3F8E493A34003F68001F2AD
:1011760008DFF48029E493A3F85407240CC8C3338A
:10118600C4540F4420C8834004F456800146F6DF59
:10119600E4800B0102040810204080901605E47ECE
:1011A600019360BCA3FF543F30E509541FFEE4934E
:1011B600A360010ECF54C025E060A840B8E493A315
:1011C600FAE493A3F8E493A3C8C582C8CAC583CA40
:1011D600F0A3C8C582C8CAC583CADFE9DEE780BEF8
:01161C0000CD
:00000001FF
